{
  "contractName": "Evaluation",
  "abi": [
    {
      "inputs": [
        {
          "internalType": "uint256",
          "name": "numSchedule",
          "type": "uint256"
        }
      ],
      "stateMutability": "nonpayable",
      "type": "constructor"
    },
    {
      "inputs": [],
      "name": "instructor",
      "outputs": [
        {
          "internalType": "address",
          "name": "",
          "type": "address"
        }
      ],
      "stateMutability": "view",
      "type": "function",
      "constant": true
    },
    {
      "inputs": [],
      "name": "numStudents",
      "outputs": [
        {
          "internalType": "uint256",
          "name": "",
          "type": "uint256"
        }
      ],
      "stateMutability": "view",
      "type": "function",
      "constant": true
    },
    {
      "inputs": [],
      "name": "numTokens",
      "outputs": [
        {
          "internalType": "uint256",
          "name": "",
          "type": "uint256"
        }
      ],
      "stateMutability": "view",
      "type": "function",
      "constant": true
    },
    {
      "inputs": [
        {
          "internalType": "uint256",
          "name": "",
          "type": "uint256"
        }
      ],
      "name": "schedules",
      "outputs": [
        {
          "internalType": "uint256",
          "name": "SID",
          "type": "uint256"
        },
        {
          "internalType": "uint256",
          "name": "voteCount",
          "type": "uint256"
        },
        {
          "internalType": "uint256",
          "name": "voteSum",
          "type": "uint256"
        }
      ],
      "stateMutability": "view",
      "type": "function",
      "constant": true
    },
    {
      "inputs": [
        {
          "internalType": "address",
          "name": "",
          "type": "address"
        }
      ],
      "name": "students",
      "outputs": [
        {
          "internalType": "uint256",
          "name": "id",
          "type": "uint256"
        },
        {
          "internalType": "address",
          "name": "delegate",
          "type": "address"
        },
        {
          "internalType": "uint256",
          "name": "tokenId",
          "type": "uint256"
        }
      ],
      "stateMutability": "view",
      "type": "function",
      "constant": true
    },
    {
      "inputs": [
        {
          "internalType": "uint256",
          "name": "",
          "type": "uint256"
        }
      ],
      "name": "tokens",
      "outputs": [
        {
          "internalType": "address",
          "name": "",
          "type": "address"
        }
      ],
      "stateMutability": "view",
      "type": "function",
      "constant": true
    },
    {
      "inputs": [
        {
          "internalType": "address",
          "name": "student",
          "type": "address"
        }
      ],
      "name": "register",
      "outputs": [],
      "stateMutability": "nonpayable",
      "type": "function"
    },
    {
      "inputs": [
        {
          "internalType": "address",
          "name": "student",
          "type": "address"
        }
      ],
      "name": "giveRightToVote",
      "outputs": [],
      "stateMutability": "nonpayable",
      "type": "function"
    },
    {
      "inputs": [
        {
          "internalType": "address",
          "name": "student",
          "type": "address"
        }
      ],
      "name": "getTokenInfo",
      "outputs": [
        {
          "internalType": "address",
          "name": "_tokenAddress",
          "type": "address"
        },
        {
          "internalType": "uint256",
          "name": "_tokenId",
          "type": "uint256"
        }
      ],
      "stateMutability": "view",
      "type": "function",
      "constant": true
    },
    {
      "inputs": [
        {
          "internalType": "uint256",
          "name": "SID",
          "type": "uint256"
        },
        {
          "internalType": "uint256",
          "name": "score",
          "type": "uint256"
        }
      ],
      "name": "evaluate",
      "outputs": [],
      "stateMutability": "nonpayable",
      "type": "function"
    },
    {
      "inputs": [
        {
          "internalType": "uint256",
          "name": "SID",
          "type": "uint256"
        }
      ],
      "name": "evaluationOf",
      "outputs": [
        {
          "internalType": "uint256",
          "name": "evaluation_",
          "type": "uint256"
        }
      ],
      "stateMutability": "view",
      "type": "function",
      "constant": true
    },
    {
      "inputs": [],
      "name": "totalEvaluation",
      "outputs": [
        {
          "internalType": "uint256",
          "name": "totalEvaluation_",
          "type": "uint256"
        }
      ],
      "stateMutability": "view",
      "type": "function",
      "constant": true
    }
  ],
  "bytecode": "0x60806040523480156200001157600080fd5b5060405162003e0238038062003e02833981810160405281019062000037919062000130565b336000806101000a81548173ffffffffffffffffffffffffffffffffffffffff021916908373ffffffffffffffffffffffffffffffffffffffff16021790555060005b81811015620001015760056040518060600160405280838152602001600081526020016000815250908060018154018082558091505060019003906000526020600020906003020160009091909190915060008201518160000155602082015181600101556040820151816002015550508080620000f89062000166565b9150506200007a565b506000600181905550600060028190555050620001fd565b6000815190506200012a81620001e3565b92915050565b6000602082840312156200014357600080fd5b6000620001538482850162000119565b91505092915050565b6000819050919050565b600062000173826200015c565b91507fffffffffffffffffffffffffffffffffffffffffffffffffffffffffffffffff821415620001a957620001a8620001b4565b5b600182019050919050565b7f4e487b7100000000000000000000000000000000000000000000000000000000600052601160045260246000fd5b620001ee816200015c565b8114620001fa57600080fd5b50565b613bf5806200020d6000396000f3fe60806040523480156200001157600080fd5b5060043610620000c45760003560e01c80638e499bcf116200007b5780638e499bcf14620001bc5780639e7b8d6114620001de578063a6c807a914620001fe578063bdc6d9ab1462000236578063deebf327146200026e578063f97445a914620002a457620000c4565b80630afad82d14620000c95780631f69565f14620000eb5780634420e48614620001225780634f64b2be14620001425780635922de94146200017857806371ae413d146200019a575b600080fd5b620000d3620002c4565b604051620000e2919062000f0a565b60405180910390f35b62000109600480360381019062000103919062000ce1565b620002ca565b6040516200011992919062000e55565b60405180910390f35b6200014060048036038101906200013a919062000ce1565b6200038d565b005b6200016060048036038101906200015a919062000d0d565b62000505565b6040516200016f919062000e38565b60405180910390f35b6200018262000545565b60405162000191919062000f0a565b60405180910390f35b620001a462000666565b604051620001b3919062000e38565b60405180910390f35b620001c66200068a565b604051620001d5919062000f0a565b60405180910390f35b620001fc6004803603810190620001f6919062000ce1565b62000690565b005b6200021c600480360381019062000216919062000ce1565b62000887565b6040516200022d9392919062000f27565b60405180910390f35b6200025460048036038101906200024e919062000d0d565b620008d1565b604051620002659392919062000f64565b60405180910390f35b6200028c600480360381019062000286919062000d0d565b6200090c565b6040516200029b919062000f0a565b60405180910390f35b620002c26004803603810190620002bc919062000d39565b62000a3d565b005b60015481565b600080600360008473ffffffffffffffffffffffffffffffffffffffff1673ffffffffffffffffffffffffffffffffffffffff1681526020019081526020016000206002015490506006600182620003239190620010a8565b815481106200035b577f4e487b7100000000000000000000000000000000000000000000000000000000600052603260045260246000fd5b9060005260206000200160009054906101000a900473ffffffffffffffffffffffffffffffffffffffff169150915091565b6000600360008373ffffffffffffffffffffffffffffffffffffffff1673ffffffffffffffffffffffffffffffffffffffff16815260200190815260200160002060000154111562000416576040517f08c379a00000000000000000000000000000000000000000000000000000000081526004016200040d9062000ea4565b60405180910390fd5b60018060008282546200042a919062000fb2565b92505081905550604051806060016040528060015481526020018273ffffffffffffffffffffffffffffffffffffffff1681526020016000815250600360008373ffffffffffffffffffffffffffffffffffffffff1673ffffffffffffffffffffffffffffffffffffffff1681526020019081526020016000206000820151816000015560208201518160010160006101000a81548173ffffffffffffffffffffffffffffffffffffffff021916908373ffffffffffffffffffffffffffffffffffffffff1602179055506040820151816002015590505050565b600681815481106200051657600080fd5b906000526020600020016000915054906101000a900473ffffffffffffffffffffffffffffffffffffffff1681565b600080600090506000805b6005805490508110156200062c576005818154811062000599577f4e487b7100000000000000000000000000000000000000000000000000000000600052603260045260246000fd5b90600052602060002090600302016002015483620005b8919062000fb2565b925060058181548110620005f5577f4e487b7100000000000000000000000000000000000000000000000000000000600052603260045260246000fd5b9060005260206000209060030201600101548262000614919062000fb2565b91508080620006239062001121565b91505062000550565b50600081141562000642576103e7925062000661565b8060648362000652919062001047565b6200065e91906200100f565b92505b505090565b60008054906101000a900473ffffffffffffffffffffffffffffffffffffffff1681565b60025481565b6000600360008373ffffffffffffffffffffffffffffffffffffffff1673ffffffffffffffffffffffffffffffffffffffff168152602001908152602001600020600201541462000718576040517f08c379a00000000000000000000000000000000000000000000000000000000081526004016200070f9062000ec6565b60405180910390fd5b6001600260008282546200072d919062000fb2565b92505081905550600254600360008373ffffffffffffffffffffffffffffffffffffffff1673ffffffffffffffffffffffffffffffffffffffff1681526020019081526020016000206002018190555060006040516200078d9062000ca5565b604051809103906000f080158015620007aa573d6000803e3d6000fd5b5090508073ffffffffffffffffffffffffffffffffffffffff1663a1448194836002546040518363ffffffff1660e01b8152600401620007ec92919062000e55565b600060405180830381600087803b1580156200080757600080fd5b505af11580156200081c573d6000803e3d6000fd5b505050506006819080600181540180825580915050600190039060005260206000200160009091909190916101000a81548173ffffffffffffffffffffffffffffffffffffffff021916908373ffffffffffffffffffffffffffffffffffffffff1602179055505050565b60036020528060005260406000206000915090508060000154908060010160009054906101000a900473ffffffffffffffffffffffffffffffffffffffff16908060020154905083565b60058181548110620008e257600080fd5b90600052602060002090600302016000915090508060000154908060010154908060020154905083565b600060058054905082106200092057600080fd5b6000600583815481106200095d577f4e487b7100000000000000000000000000000000000000000000000000000000600052603260045260246000fd5b906000526020600020906003020160010154141562000981576103e7905062000a38565b60058281548110620009bc577f4e487b7100000000000000000000000000000000000000000000000000000000600052603260045260246000fd5b90600052602060002090600302016001015460646005848154811062000a0b577f4e487b7100000000000000000000000000000000000000000000000000000000600052603260045260246000fd5b90600052602060002090600302016002015462000a29919062001047565b62000a3591906200100f565b90505b919050565b6000600360003373ffffffffffffffffffffffffffffffffffffffff1673ffffffffffffffffffffffffffffffffffffffff168152602001908152602001600020905060008160020154141562000acb576040517f08c379a000000000000000000000000000000000000000000000000000000000815260040162000ac29062000e82565b60405180910390fd5b6004600084815260200190815260200160002060003373ffffffffffffffffffffffffffffffffffffffff1673ffffffffffffffffffffffffffffffffffffffff16815260200190815260200160002060009054906101000a900460ff161562000b6c576040517f08c379a000000000000000000000000000000000000000000000000000000000815260040162000b639062000ee8565b60405180910390fd5b60016004600085815260200190815260200160002060003373ffffffffffffffffffffffffffffffffffffffff1673ffffffffffffffffffffffffffffffffffffffff16815260200190815260200160002060006101000a81548160ff02191690831515021790555060016005848154811062000c12577f4e487b7100000000000000000000000000000000000000000000000000000000600052603260045260246000fd5b9060005260206000209060030201600101600082825462000c34919062000fb2565b92505081905550816005848154811062000c77577f4e487b7100000000000000000000000000000000000000000000000000000000600052603260045260246000fd5b9060005260206000209060030201600201600082825462000c99919062000fb2565b92505081905550505050565b61291a80620012a683390190565b60008135905062000cc48162001271565b92915050565b60008135905062000cdb816200128b565b92915050565b60006020828403121562000cf457600080fd5b600062000d048482850162000cb3565b91505092915050565b60006020828403121562000d2057600080fd5b600062000d308482850162000cca565b91505092915050565b6000806040838503121562000d4d57600080fd5b600062000d5d8582860162000cca565b925050602062000d708582860162000cca565b9150509250929050565b62000d8581620010e3565b82525050565b600062000d9a60198362000fa1565b915062000da782620011cd565b602082019050919050565b600062000dc160128362000fa1565b915062000dce82620011f6565b602082019050919050565b600062000de860208362000fa1565b915062000df5826200121f565b602082019050919050565b600062000e0f60128362000fa1565b915062000e1c8262001248565b602082019050919050565b62000e328162001117565b82525050565b600060208201905062000e4f600083018462000d7a565b92915050565b600060408201905062000e6c600083018562000d7a565b62000e7b602083018462000e27565b9392505050565b6000602082019050818103600083015262000e9d8162000d8b565b9050919050565b6000602082019050818103600083015262000ebf8162000db2565b9050919050565b6000602082019050818103600083015262000ee18162000dd9565b9050919050565b6000602082019050818103600083015262000f038162000e00565b9050919050565b600060208201905062000f21600083018462000e27565b92915050565b600060608201905062000f3e600083018662000e27565b62000f4d602083018562000d7a565b62000f5c604083018462000e27565b949350505050565b600060608201905062000f7b600083018662000e27565b62000f8a602083018562000e27565b62000f99604083018462000e27565b949350505050565b600082825260208201905092915050565b600062000fbf8262001117565b915062000fcc8362001117565b9250827fffffffffffffffffffffffffffffffffffffffffffffffffffffffffffffffff038211156200100457620010036200116f565b5b828201905092915050565b60006200101c8262001117565b9150620010298362001117565b9250826200103c576200103b6200119e565b5b828204905092915050565b6000620010548262001117565b9150620010618362001117565b9250817fffffffffffffffffffffffffffffffffffffffffffffffffffffffffffffffff04831182151516156200109d576200109c6200116f565b5b828202905092915050565b6000620010b58262001117565b9150620010c28362001117565b925082821015620010d857620010d76200116f565b5b828203905092915050565b6000620010f082620010f7565b9050919050565b600073ffffffffffffffffffffffffffffffffffffffff82169050919050565b6000819050919050565b60006200112e8262001117565b91507fffffffffffffffffffffffffffffffffffffffffffffffffffffffffffffffff8214156200116457620011636200116f565b5b600182019050919050565b7f4e487b7100000000000000000000000000000000000000000000000000000000600052601160045260246000fd5b7f4e487b7100000000000000000000000000000000000000000000000000000000600052601260045260246000fd5b7f486173206e6f20726967687420746f206576616c756174652e00000000000000600082015250565b7f616c726561647920726567697374657265640000000000000000000000000000600082015250565b7f416c726561647920676f74206120636572746966696361746520746f6b656e2e600082015250565b7f416c7265616479206576616c75617465642e0000000000000000000000000000600082015250565b6200127c81620010e3565b81146200128857600080fd5b50565b620012968162001117565b8114620012a257600080fd5b5056fe60806040523480156200001157600080fd5b506040518060400160405280600d81526020017f43657274696669636174696f6e000000000000000000000000000000000000008152506040518060400160405280600381526020017f4d544b0000000000000000000000000000000000000000000000000000000000815250816000908051906020019062000096929190620001a6565b508060019080519060200190620000af929190620001a6565b505050620000d2620000c6620000d860201b60201c565b620000e060201b60201c565b620002bb565b600033905090565b6000600660009054906101000a900473ffffffffffffffffffffffffffffffffffffffff16905081600660006101000a81548173ffffffffffffffffffffffffffffffffffffffff021916908373ffffffffffffffffffffffffffffffffffffffff1602179055508173ffffffffffffffffffffffffffffffffffffffff168173ffffffffffffffffffffffffffffffffffffffff167f8be0079c531659141344cd1fd0a4f28419497f9722a3daafe3b4186f6b6457e060405160405180910390a35050565b828054620001b49062000256565b90600052602060002090601f016020900481019282620001d8576000855562000224565b82601f10620001f357805160ff191683800117855562000224565b8280016001018555821562000224579182015b828111156200022357825182559160200191906001019062000206565b5b50905062000233919062000237565b5090565b5b808211156200025257600081600090555060010162000238565b5090565b600060028204905060018216806200026f57607f821691505b602082108114156200028657620002856200028c565b5b50919050565b7f4e487b7100000000000000000000000000000000000000000000000000000000600052602260045260246000fd5b61264f80620002cb6000396000f3fe608060405234801561001057600080fd5b506004361061010b5760003560e01c8063715018a6116100a2578063a22cb46511610071578063a22cb465146102a4578063b88d4fde146102c0578063c87b56dd146102dc578063e985e9c51461030c578063f2fde38b1461033c5761010b565b8063715018a6146102425780638da5cb5b1461024c57806395d89b411461026a578063a1448194146102885761010b565b806323b872dd116100de57806323b872dd146101aa57806342842e0e146101c65780636352211e146101e257806370a08231146102125761010b565b806301ffc9a71461011057806306fdde0314610140578063081812fc1461015e578063095ea7b31461018e575b600080fd5b61012a60048036038101906101259190611a2e565b610358565b6040516101379190611d99565b60405180910390f35b61014861043a565b6040516101559190611db4565b60405180910390f35b61017860048036038101906101739190611a80565b6104cc565b6040516101859190611d32565b60405180910390f35b6101a860048036038101906101a391906119f2565b610512565b005b6101c460048036038101906101bf91906118ec565b61062a565b005b6101e060048036038101906101db91906118ec565b61068a565b005b6101fc60048036038101906101f79190611a80565b6106aa565b6040516102099190611d32565b60405180910390f35b61022c60048036038101906102279190611887565b610731565b6040516102399190611f96565b60405180910390f35b61024a6107e9565b005b6102546107fd565b6040516102619190611d32565b60405180910390f35b610272610827565b60405161027f9190611db4565b60405180910390f35b6102a2600480360381019061029d91906119f2565b6108b9565b005b6102be60048036038101906102b991906119b6565b6108cf565b005b6102da60048036038101906102d5919061193b565b6108e5565b005b6102f660048036038101906102f19190611a80565b610947565b6040516103039190611db4565b60405180910390f35b610326600480360381019061032191906118b0565b6109b1565b6040516103339190611d99565b60405180910390f35b61035660048036038101906103519190611887565b610a45565b005b60007f80ac58cd000000000000000000000000000000000000000000000000000000007bffffffffffffffffffffffffffffffffffffffffffffffffffffffff1916827bffffffffffffffffffffffffffffffffffffffffffffffffffffffff1916148061042357507f5b5e139f000000000000000000000000000000000000000000000000000000007bffffffffffffffffffffffffffffffffffffffffffffffffffffffff1916827bffffffffffffffffffffffffffffffffffffffffffffffffffffffff1916145b80610433575061043282610ac9565b5b9050919050565b606060008054610449906120f5565b80601f0160208091040260200160405190810160405280929190818152602001828054610475906120f5565b80156104c25780601f10610497576101008083540402835291602001916104c2565b820191906000526020600020905b8154815290600101906020018083116104a557829003601f168201915b5050505050905090565b60006104d782610b33565b6004600083815260200190815260200160002060009054906101000a900473ffffffffffffffffffffffffffffffffffffffff169050919050565b600061051d826106aa565b90508073ffffffffffffffffffffffffffffffffffffffff168373ffffffffffffffffffffffffffffffffffffffff16141561058e576040517f08c379a000000000000000000000000000000000000000000000000000000000815260040161058590611f56565b60405180910390fd5b8073ffffffffffffffffffffffffffffffffffffffff166105ad610b7e565b73ffffffffffffffffffffffffffffffffffffffff1614806105dc57506105db816105d6610b7e565b6109b1565b5b61061b576040517f08c379a000000000000000000000000000000000000000000000000000000000815260040161061290611f76565b60405180910390fd5b6106258383610b86565b505050565b61063b610635610b7e565b82610c3f565b61067a576040517f08c379a000000000000000000000000000000000000000000000000000000000815260040161067190611dd6565b60405180910390fd5b610685838383610cd4565b505050565b6106a5838383604051806020016040528060008152506108e5565b505050565b6000806106b683610fce565b9050600073ffffffffffffffffffffffffffffffffffffffff168173ffffffffffffffffffffffffffffffffffffffff161415610728576040517f08c379a000000000000000000000000000000000000000000000000000000000815260040161071f90611f36565b60405180910390fd5b80915050919050565b60008073ffffffffffffffffffffffffffffffffffffffff168273ffffffffffffffffffffffffffffffffffffffff1614156107a2576040517f08c379a000000000000000000000000000000000000000000000000000000000815260040161079990611eb6565b60405180910390fd5b600360008373ffffffffffffffffffffffffffffffffffffffff1673ffffffffffffffffffffffffffffffffffffffff168152602001908152602001600020549050919050565b6107f161100b565b6107fb6000611089565b565b6000600660009054906101000a900473ffffffffffffffffffffffffffffffffffffffff16905090565b606060018054610836906120f5565b80601f0160208091040260200160405190810160405280929190818152602001828054610862906120f5565b80156108af5780601f10610884576101008083540402835291602001916108af565b820191906000526020600020905b81548152906001019060200180831161089257829003601f168201915b5050505050905090565b6108c161100b565b6108cb828261114f565b5050565b6108e16108da610b7e565b838361116d565b5050565b6108f66108f0610b7e565b83610c3f565b610935576040517f08c379a000000000000000000000000000000000000000000000000000000000815260040161092c90611dd6565b60405180910390fd5b610941848484846112da565b50505050565b606061095282611336565b610991576040517f08c379a000000000000000000000000000000000000000000000000000000000815260040161098890611f16565b60405180910390fd5b6040518060a00160405280606281526020016125b8606291399050919050565b6000600560008473ffffffffffffffffffffffffffffffffffffffff1673ffffffffffffffffffffffffffffffffffffffff16815260200190815260200160002060008373ffffffffffffffffffffffffffffffffffffffff1673ffffffffffffffffffffffffffffffffffffffff16815260200190815260200160002060009054906101000a900460ff16905092915050565b610a4d61100b565b600073ffffffffffffffffffffffffffffffffffffffff168173ffffffffffffffffffffffffffffffffffffffff161415610abd576040517f08c379a0000000000000000000000000000000000000000000000000000000008152600401610ab490611e16565b60405180910390fd5b610ac681611089565b50565b60007f01ffc9a7000000000000000000000000000000000000000000000000000000007bffffffffffffffffffffffffffffffffffffffffffffffffffffffff1916827bffffffffffffffffffffffffffffffffffffffffffffffffffffffff1916149050919050565b610b3c81611336565b610b7b576040517f08c379a0000000000000000000000000000000000000000000000000000000008152600401610b7290611f36565b60405180910390fd5b50565b600033905090565b816004600083815260200190815260200160002060006101000a81548173ffffffffffffffffffffffffffffffffffffffff021916908373ffffffffffffffffffffffffffffffffffffffff160217905550808273ffffffffffffffffffffffffffffffffffffffff16610bf9836106aa565b73ffffffffffffffffffffffffffffffffffffffff167f8c5be1e5ebec7d5bd14f71427d1e84f3dd0314c0f7b2291e5b200ac8c7c3b92560405160405180910390a45050565b600080610c4b836106aa565b90508073ffffffffffffffffffffffffffffffffffffffff168473ffffffffffffffffffffffffffffffffffffffff161480610c8d5750610c8c81856109b1565b5b80610ccb57508373ffffffffffffffffffffffffffffffffffffffff16610cb3846104cc565b73ffffffffffffffffffffffffffffffffffffffff16145b91505092915050565b8273ffffffffffffffffffffffffffffffffffffffff16610cf4826106aa565b73ffffffffffffffffffffffffffffffffffffffff1614610d4a576040517f08c379a0000000000000000000000000000000000000000000000000000000008152600401610d4190611e36565b60405180910390fd5b600073ffffffffffffffffffffffffffffffffffffffff168273ffffffffffffffffffffffffffffffffffffffff161415610dba576040517f08c379a0000000000000000000000000000000000000000000000000000000008152600401610db190611e76565b60405180910390fd5b610dc78383836001611377565b8273ffffffffffffffffffffffffffffffffffffffff16610de7826106aa565b73ffffffffffffffffffffffffffffffffffffffff1614610e3d576040517f08c379a0000000000000000000000000000000000000000000000000000000008152600401610e3490611e36565b60405180910390fd5b6004600082815260200190815260200160002060006101000a81549073ffffffffffffffffffffffffffffffffffffffff02191690556001600360008573ffffffffffffffffffffffffffffffffffffffff1673ffffffffffffffffffffffffffffffffffffffff168152602001908152602001600020600082825403925050819055506001600360008473ffffffffffffffffffffffffffffffffffffffff1673ffffffffffffffffffffffffffffffffffffffff16815260200190815260200160002060008282540192505081905550816002600083815260200190815260200160002060006101000a81548173ffffffffffffffffffffffffffffffffffffffff021916908373ffffffffffffffffffffffffffffffffffffffff160217905550808273ffffffffffffffffffffffffffffffffffffffff168473ffffffffffffffffffffffffffffffffffffffff167fddf252ad1be2c89b69c2b068fc378daa952ba7f163c4a11628f55a4df523b3ef60405160405180910390a4610fc9838383600161137d565b505050565b60006002600083815260200190815260200160002060009054906101000a900473ffffffffffffffffffffffffffffffffffffffff169050919050565b611013610b7e565b73ffffffffffffffffffffffffffffffffffffffff166110316107fd565b73ffffffffffffffffffffffffffffffffffffffff1614611087576040517f08c379a000000000000000000000000000000000000000000000000000000000815260040161107e90611ef6565b60405180910390fd5b565b6000600660009054906101000a900473ffffffffffffffffffffffffffffffffffffffff16905081600660006101000a81548173ffffffffffffffffffffffffffffffffffffffff021916908373ffffffffffffffffffffffffffffffffffffffff1602179055508173ffffffffffffffffffffffffffffffffffffffff168173ffffffffffffffffffffffffffffffffffffffff167f8be0079c531659141344cd1fd0a4f28419497f9722a3daafe3b4186f6b6457e060405160405180910390a35050565b611169828260405180602001604052806000815250611383565b5050565b8173ffffffffffffffffffffffffffffffffffffffff168373ffffffffffffffffffffffffffffffffffffffff1614156111dc576040517f08c379a00000000000000000000000000000000000000000000000000000000081526004016111d390611e96565b60405180910390fd5b80600560008573ffffffffffffffffffffffffffffffffffffffff1673ffffffffffffffffffffffffffffffffffffffff16815260200190815260200160002060008473ffffffffffffffffffffffffffffffffffffffff1673ffffffffffffffffffffffffffffffffffffffff16815260200190815260200160002060006101000a81548160ff0219169083151502179055508173ffffffffffffffffffffffffffffffffffffffff168373ffffffffffffffffffffffffffffffffffffffff167f17307eab39ab6107e8899845ad3d59bd9653f200f220920489ca2b5937696c31836040516112cd9190611d99565b60405180910390a3505050565b6112e5848484610cd4565b6112f1848484846113de565b611330576040517f08c379a000000000000000000000000000000000000000000000000000000000815260040161132790611df6565b60405180910390fd5b50505050565b60008073ffffffffffffffffffffffffffffffffffffffff1661135883610fce565b73ffffffffffffffffffffffffffffffffffffffff1614159050919050565b50505050565b50505050565b61138d8383611575565b61139a60008484846113de565b6113d9576040517f08c379a00000000000000000000000000000000000000000000000000000000081526004016113d090611df6565b60405180910390fd5b505050565b60006113ff8473ffffffffffffffffffffffffffffffffffffffff16611793565b15611568578373ffffffffffffffffffffffffffffffffffffffff1663150b7a02611428610b7e565b8786866040518563ffffffff1660e01b815260040161144a9493929190611d4d565b602060405180830381600087803b15801561146457600080fd5b505af192505050801561149557506040513d601f19601f820116820180604052508101906114929190611a57565b60015b611518573d80600081146114c5576040519150601f19603f3d011682016040523d82523d6000602084013e6114ca565b606091505b50600081511415611510576040517f08c379a000000000000000000000000000000000000000000000000000000000815260040161150790611df6565b60405180910390fd5b805181602001fd5b63150b7a0260e01b7bffffffffffffffffffffffffffffffffffffffffffffffffffffffff1916817bffffffffffffffffffffffffffffffffffffffffffffffffffffffff19161491505061156d565b600190505b949350505050565b600073ffffffffffffffffffffffffffffffffffffffff168273ffffffffffffffffffffffffffffffffffffffff1614156115e5576040517f08c379a00000000000000000000000000000000000000000000000000000000081526004016115dc90611ed6565b60405180910390fd5b6115ee81611336565b1561162e576040517f08c379a000000000000000000000000000000000000000000000000000000000815260040161162590611e56565b60405180910390fd5b61163c600083836001611377565b61164581611336565b15611685576040517f08c379a000000000000000000000000000000000000000000000000000000000815260040161167c90611e56565b60405180910390fd5b6001600360008473ffffffffffffffffffffffffffffffffffffffff1673ffffffffffffffffffffffffffffffffffffffff16815260200190815260200160002060008282540192505081905550816002600083815260200190815260200160002060006101000a81548173ffffffffffffffffffffffffffffffffffffffff021916908373ffffffffffffffffffffffffffffffffffffffff160217905550808273ffffffffffffffffffffffffffffffffffffffff16600073ffffffffffffffffffffffffffffffffffffffff167fddf252ad1be2c89b69c2b068fc378daa952ba7f163c4a11628f55a4df523b3ef60405160405180910390a461178f60008383600161137d565b5050565b6000808273ffffffffffffffffffffffffffffffffffffffff163b119050919050565b60006117c96117c484611fd6565b611fb1565b9050828152602081018484840111156117e157600080fd5b6117ec8482856120b3565b509392505050565b6000813590506118038161255b565b92915050565b60008135905061181881612572565b92915050565b60008135905061182d81612589565b92915050565b60008151905061184281612589565b92915050565b600082601f83011261185957600080fd5b81356118698482602086016117b6565b91505092915050565b600081359050611881816125a0565b92915050565b60006020828403121561189957600080fd5b60006118a7848285016117f4565b91505092915050565b600080604083850312156118c357600080fd5b60006118d1858286016117f4565b92505060206118e2858286016117f4565b9150509250929050565b60008060006060848603121561190157600080fd5b600061190f868287016117f4565b9350506020611920868287016117f4565b925050604061193186828701611872565b9150509250925092565b6000806000806080858703121561195157600080fd5b600061195f878288016117f4565b9450506020611970878288016117f4565b935050604061198187828801611872565b925050606085013567ffffffffffffffff81111561199e57600080fd5b6119aa87828801611848565b91505092959194509250565b600080604083850312156119c957600080fd5b60006119d7858286016117f4565b92505060206119e885828601611809565b9150509250929050565b60008060408385031215611a0557600080fd5b6000611a13858286016117f4565b9250506020611a2485828601611872565b9150509250929050565b600060208284031215611a4057600080fd5b6000611a4e8482850161181e565b91505092915050565b600060208284031215611a6957600080fd5b6000611a7784828501611833565b91505092915050565b600060208284031215611a9257600080fd5b6000611aa084828501611872565b91505092915050565b611ab28161203f565b82525050565b611ac181612051565b82525050565b6000611ad282612007565b611adc818561201d565b9350611aec8185602086016120c2565b611af5816121b6565b840191505092915050565b6000611b0b82612012565b611b15818561202e565b9350611b258185602086016120c2565b611b2e816121b6565b840191505092915050565b6000611b46602d8361202e565b9150611b51826121c7565b604082019050919050565b6000611b6960328361202e565b9150611b7482612216565b604082019050919050565b6000611b8c60268361202e565b9150611b9782612265565b604082019050919050565b6000611baf60258361202e565b9150611bba826122b4565b604082019050919050565b6000611bd2601c8361202e565b9150611bdd82612303565b602082019050919050565b6000611bf560248361202e565b9150611c008261232c565b604082019050919050565b6000611c1860198361202e565b9150611c238261237b565b602082019050919050565b6000611c3b60298361202e565b9150611c46826123a4565b604082019050919050565b6000611c5e60208361202e565b9150611c69826123f3565b602082019050919050565b6000611c8160208361202e565b9150611c8c8261241c565b602082019050919050565b6000611ca4602f8361202e565b9150611caf82612445565b604082019050919050565b6000611cc760188361202e565b9150611cd282612494565b602082019050919050565b6000611cea60218361202e565b9150611cf5826124bd565b604082019050919050565b6000611d0d603d8361202e565b9150611d188261250c565b604082019050919050565b611d2c816120a9565b82525050565b6000602082019050611d476000830184611aa9565b92915050565b6000608082019050611d626000830187611aa9565b611d6f6020830186611aa9565b611d7c6040830185611d23565b8181036060830152611d8e8184611ac7565b905095945050505050565b6000602082019050611dae6000830184611ab8565b92915050565b60006020820190508181036000830152611dce8184611b00565b905092915050565b60006020820190508181036000830152611def81611b39565b9050919050565b60006020820190508181036000830152611e0f81611b5c565b9050919050565b60006020820190508181036000830152611e2f81611b7f565b9050919050565b60006020820190508181036000830152611e4f81611ba2565b9050919050565b60006020820190508181036000830152611e6f81611bc5565b9050919050565b60006020820190508181036000830152611e8f81611be8565b9050919050565b60006020820190508181036000830152611eaf81611c0b565b9050919050565b60006020820190508181036000830152611ecf81611c2e565b9050919050565b60006020820190508181036000830152611eef81611c51565b9050919050565b60006020820190508181036000830152611f0f81611c74565b9050919050565b60006020820190508181036000830152611f2f81611c97565b9050919050565b60006020820190508181036000830152611f4f81611cba565b9050919050565b60006020820190508181036000830152611f6f81611cdd565b9050919050565b60006020820190508181036000830152611f8f81611d00565b9050919050565b6000602082019050611fab6000830184611d23565b92915050565b6000611fbb611fcc565b9050611fc78282612127565b919050565b6000604051905090565b600067ffffffffffffffff821115611ff157611ff0612187565b5b611ffa826121b6565b9050602081019050919050565b600081519050919050565b600081519050919050565b600082825260208201905092915050565b600082825260208201905092915050565b600061204a82612089565b9050919050565b60008115159050919050565b60007fffffffff0000000000000000000000000000000000000000000000000000000082169050919050565b600073ffffffffffffffffffffffffffffffffffffffff82169050919050565b6000819050919050565b82818337600083830152505050565b60005b838110156120e05780820151818401526020810190506120c5565b838111156120ef576000848401525b50505050565b6000600282049050600182168061210d57607f821691505b6020821081141561212157612120612158565b5b50919050565b612130826121b6565b810181811067ffffffffffffffff8211171561214f5761214e612187565b5b80604052505050565b7f4e487b7100000000000000000000000000000000000000000000000000000000600052602260045260246000fd5b7f4e487b7100000000000000000000000000000000000000000000000000000000600052604160045260246000fd5b6000601f19601f8301169050919050565b7f4552433732313a2063616c6c6572206973206e6f7420746f6b656e206f776e6560008201527f72206f7220617070726f76656400000000000000000000000000000000000000602082015250565b7f4552433732313a207472616e7366657220746f206e6f6e20455243373231526560008201527f63656976657220696d706c656d656e7465720000000000000000000000000000602082015250565b7f4f776e61626c653a206e6577206f776e657220697320746865207a65726f206160008201527f6464726573730000000000000000000000000000000000000000000000000000602082015250565b7f4552433732313a207472616e736665722066726f6d20696e636f72726563742060008201527f6f776e6572000000000000000000000000000000000000000000000000000000602082015250565b7f4552433732313a20746f6b656e20616c7265616479206d696e74656400000000600082015250565b7f4552433732313a207472616e7366657220746f20746865207a65726f2061646460008201527f7265737300000000000000000000000000000000000000000000000000000000602082015250565b7f4552433732313a20617070726f766520746f2063616c6c657200000000000000600082015250565b7f4552433732313a2061646472657373207a65726f206973206e6f74206120766160008201527f6c6964206f776e65720000000000000000000000000000000000000000000000602082015250565b7f4552433732313a206d696e7420746f20746865207a65726f2061646472657373600082015250565b7f4f776e61626c653a2063616c6c6572206973206e6f7420746865206f776e6572600082015250565b7f4552433732314d657461646174613a2055524920717565727920666f72206e6f60008201527f6e6578697374656e7420746f6b656e0000000000000000000000000000000000602082015250565b7f4552433732313a20696e76616c696420746f6b656e2049440000000000000000600082015250565b7f4552433732313a20617070726f76616c20746f2063757272656e74206f776e6560008201527f7200000000000000000000000000000000000000000000000000000000000000602082015250565b7f4552433732313a20617070726f76652063616c6c6572206973206e6f7420746f60008201527f6b656e206f776e6572206f7220617070726f76656420666f7220616c6c000000602082015250565b6125648161203f565b811461256f57600080fd5b50565b61257b81612051565b811461258657600080fd5b50565b6125928161205d565b811461259d57600080fd5b50565b6125a9816120a9565b81146125b457600080fd5b5056fe68747470733a2f2f6e667473746f726167652e6c696e6b2f697066732f62616679626569686271646e666b6f377978366e6d6e686e776f787863697462756a766e356f3375326b6f377a747469347063747a6f33703368652f6d6574612e6a736f6ea264697066735822122053860d6d2b91d1a26dc2d65888915a796ee2cb61ab11a53bc57cd994862c228664736f6c63430008010033a2646970667358221220f7c9735c227f164b29134f6b81f3ef4cb5b1d4ec6a0236d6cf2c76934bd5079c64736f6c63430008010033",
  "immutableReferences": {},
  "source": "// SPDX-License-Identifier: GPL-3.0\r\n\r\npragma solidity >=0.7.0 <0.9.0;\r\n\r\n\r\nimport \"../node_modules/@openzeppelin/contracts/token/ERC721/ERC721.sol\";\r\nimport \"../node_modules/@openzeppelin/contracts/access/Ownable.sol\";\r\n\r\n// didn't import counter but just implemented counting myself.\r\n\r\ncontract CertificateToken is ERC721, Ownable {\r\n    constructor() ERC721(\"Certification\", \"MTK\") {}\r\n\t\r\n\tfunction tokenURI(uint256 tokenId) public view virtual override returns (string memory) {\r\n\t\trequire(_exists(tokenId), \"ERC721Metadata: URI query for nonexistent token\");\r\n        return \"https://nftstorage.link/ipfs/bafybeihbqdnfko7yx6nmnhnwoxxcitbujvn5o3u2ko7ztti4pctzo3p3he/meta.json\";\r\n    }\r\n\r\n    function safeMint(address to, uint256 tokenId) public onlyOwner {\r\n        _safeMint(to, tokenId);\r\n    }\r\n}\r\n\r\ncontract Evaluation {\r\n    struct Student {\r\n        uint id;\r\n        address delegate;\r\n        uint tokenId;\r\n    }\r\n\r\n    struct Schedule {\r\n        uint SID;\r\n        uint voteCount;\r\n        uint voteSum;\r\n    }\r\n\r\n    address public instructor;\r\n\r\n    uint public numStudents;\r\n\tuint public numTokens;\r\n\r\n    mapping(address => Student) public students;\r\n    mapping(uint => mapping(address => bool)) votedCheck;\r\n\r\n    Schedule[] public schedules;\r\n\taddress[] public tokens;\r\n\r\n    constructor(uint numSchedule) {\r\n        instructor = msg.sender;\r\n\r\n        for (uint i = 0; i < numSchedule; i++) {\r\n            schedules.push(Schedule({SID: i, voteCount: 0, voteSum: 0}));\r\n        }\r\n        numStudents = 0;\r\n\t\tnumTokens = 0;\r\n    }\r\n\r\n    function register(address student) public {\r\n        require(!(students[student].id > 0), \"already registered\");\r\n        numStudents += 1;\r\n        students[student] = Student(numStudents, student, 0);\r\n    }\r\n\r\n    function giveRightToVote(address student) public  {\r\n        // ignore below for demonstrating\r\n        // require(\r\n        //     msg.sender == instructor || msg.sender == address(this),\r\n        //     \"Only instructor can give right to vote.\"\r\n        // );\r\n        require(students[student].tokenId == 0, \"Already got a certificate token.\");\r\n\r\n\t\tnumTokens += 1;\r\n        students[student].tokenId = numTokens;\r\n\t\tCertificateToken token = new CertificateToken();\r\n\t\ttoken.safeMint(student, numTokens);\r\n\t\ttokens.push(address(token));\r\n    }\r\n\t\r\n\tfunction getTokenInfo(address student) public view returns (address _tokenAddress, uint _tokenId) {\r\n\t\t_tokenId = students[student].tokenId;\r\n\t\t_tokenAddress = tokens[_tokenId - 1];\r\n\t}\r\n\r\n    function evaluate(uint SID, uint score) public {\r\n        Student storage sender = students[msg.sender];\r\n        require(sender.tokenId != 0, \"Has no right to evaluate.\");\r\n        require(!votedCheck[SID][msg.sender], \"Already evaluated.\");\r\n\r\n        votedCheck[SID][msg.sender] = true;\r\n        schedules[SID].voteCount += 1;\r\n        schedules[SID].voteSum += score;\r\n    }\r\n\r\n    function evaluationOf(uint SID) public view returns (uint evaluation_) {\r\n        require(SID < schedules.length);\r\n        if (schedules[SID].voteCount == 0) evaluation_ = 999;\r\n        else\r\n            evaluation_ =\r\n                (schedules[SID].voteSum * 100) /\r\n                schedules[SID].voteCount;\r\n    }\r\n\r\n    function totalEvaluation() public view returns (uint totalEvaluation_) {\r\n        uint totalSum = 0;\r\n        uint totalCount = 0;\r\n        for (uint s = 0; s < schedules.length; s++) {\r\n            totalSum += schedules[s].voteSum;\r\n            totalCount += schedules[s].voteCount;\r\n        }\r\n        if (totalCount == 0) totalEvaluation_ = 999;\r\n        else totalEvaluation_ = (totalSum * 100) / totalCount;\r\n    }\r\n\r\n}\r\n",
  "sourcePath": "C:\\Users\\User\\Desktop\\2023 \\Web3_Blockchain\\evaluation\\evaluation-contract\\contracts\\Evaluation.sol",
  "compiler": {
    "name": "solc",
    "version": "0.8.1+commit.df193b15.Emscripten.clang"
  },
  "schemaVersion": "3.4.14",
  "updatedAt": "2023-05-29T22:45:14.456Z",
  "networkType": "ethereum",
  "devdoc": {
    "kind": "dev",
    "methods": {},
    "version": 1
  },
  "userdoc": {
    "kind": "user",
    "methods": {},
    "version": 1
  }
}